{
  "address": "0xC3bF997F5A3ebDa45DcF6a24d3ea3c2941eEd6ce",
  "abi": [
    {
      "inputs": [
        {
          "internalType": "address",
          "name": "_lending",
          "type": "address"
        },
        {
          "internalType": "address",
          "name": "_cornDEX",
          "type": "address"
        },
        {
          "internalType": "address",
          "name": "_corn",
          "type": "address"
        }
      ],
      "stateMutability": "nonpayable",
      "type": "constructor"
    },
    {
      "anonymous": false,
      "inputs": [
        {
          "indexed": false,
          "internalType": "address",
          "name": "user",
          "type": "address"
        },
        {
          "indexed": false,
          "internalType": "uint256",
          "name": "loops",
          "type": "uint256"
        }
      ],
      "name": "LeveragedPositionClosed",
      "type": "event"
    },
    {
      "anonymous": false,
      "inputs": [
        {
          "indexed": false,
          "internalType": "address",
          "name": "user",
          "type": "address"
        },
        {
          "indexed": false,
          "internalType": "uint256",
          "name": "loops",
          "type": "uint256"
        }
      ],
      "name": "LeveragedPositionOpened",
      "type": "event"
    },
    {
      "inputs": [],
      "name": "claimOwnership",
      "outputs": [],
      "stateMutability": "nonpayable",
      "type": "function"
    },
    {
      "inputs": [],
      "name": "closeLeveragedPosition",
      "outputs": [],
      "stateMutability": "nonpayable",
      "type": "function"
    },
    {
      "inputs": [
        {
          "internalType": "uint256",
          "name": "reserve",
          "type": "uint256"
        }
      ],
      "name": "openLeveragedPosition",
      "outputs": [],
      "stateMutability": "payable",
      "type": "function"
    },
    {
      "inputs": [],
      "name": "owner",
      "outputs": [
        {
          "internalType": "address",
          "name": "",
          "type": "address"
        }
      ],
      "stateMutability": "view",
      "type": "function"
    },
    {
      "inputs": [],
      "name": "withdraw",
      "outputs": [],
      "stateMutability": "nonpayable",
      "type": "function"
    },
    {
      "stateMutability": "payable",
      "type": "receive"
    }
  ],
  "transactionHash": "0x8bb924b90ecb23e2ab5f09ec400741601ccc2ecc851c2a38e6c75b09f40bb808",
  "args": [
    "0x0718b6522FE1c898692d0C9d5787418BB55584A5",
    "0x632D0D222A4ED1D94606b90D3702B446B37E60B5",
    "0xB1da8b6c65732d33340b8923bdc9e3397d5f5151"
  ],
  "numDeployments": 1,
  "solcInputHash": "01ebecaa67175b715ed5f47fb03598cf",
  "bytecode": "0x608060405234801561001057600080fd5b50604051610a4b380380610a4b83398101604081905261002f91610176565b600080546001600160a01b038581166001600160a01b0319928316179092556001805485841690831681179091556002805493851693909216831790915560405163095ea7b360e01b81526004810191909152600019602482015263095ea7b3906044016020604051808303816000875af11580156100b2573d6000803e3d6000fd5b505050506040513d601f19601f820116820180604052508101906100d691906101b9565b5060025460005460405163095ea7b360e01b81526001600160a01b039182166004820152600019602482015291169063095ea7b3906044016020604051808303816000875af115801561012d573d6000803e3d6000fd5b505050506040513d601f19601f8201168201806040525081019061015191906101b9565b505050506101e2565b80516001600160a01b038116811461017157600080fd5b919050565b60008060006060848603121561018b57600080fd5b6101948461015a565b92506101a26020850161015a565b91506101b06040850161015a565b90509250925092565b6000602082840312156101cb57600080fd5b815180151581146101db57600080fd5b9392505050565b61085a806101f16000396000f3fe60806040526004361061004e5760003560e01c806319adbcf11461005a5780633ccfd60b146100715780634e71e0c8146100865780635d35fd1d146100aa5780638da5cb5b146100bd57600080fd5b3661005557005b600080fd5b34801561006657600080fd5b5061006f6100f9565b005b34801561007d57600080fd5b5061006f6104fe565b34801561009257600080fd5b5061006f600380546001600160a01b03191633179055565b61006f6100b83660046107a7565b610580565b3480156100c957600080fd5b506003546100dd906001600160a01b031681565b6040516001600160a01b03909116815260200160405180910390f35b6003546001600160a01b0316331461012c5760405162461bcd60e51b8152600401610123906107c0565b60405180910390fd5b60005b600080546040516324842b9960e21b81523060048201526001600160a01b0390911690639210ae6490602401602060405180830381865afa158015610178573d6000803e3d6000fd5b505050506040513d601f19601f8201168201806040525081019061019c91906107e4565b6000546040516330897f1760e11b8152600481018390529192506001600160a01b031690636112fe2e90602401600060405180830381600087803b1580156101e357600080fd5b505af11580156101f7573d6000803e3d6000fd5b5050600154604051634a5c8c6f60e11b8152600481018590526001600160a01b0390911692506394b918de9150839060240160206040518083038185885af1158015610247573d6000803e3d6000fd5b50505050506040513d601f19601f8201168201806040525081019061026c91906107e4565b506002546040516370a0823160e01b81523060048201526000916001600160a01b0316906370a0823190602401602060405180830381865afa1580156102b6573d6000803e3d6000fd5b505050506040513d601f19601f820116820180604052508101906102da91906107e4565b60008054604051632a5f2c2360e01b815230600482015292935090916001600160a01b0390911690632a5f2c2390602401602060405180830381865afa158015610328573d6000803e3d6000fd5b505050506040513d601f19601f8201168201806040525081019061034c91906107e4565b9050600081831161035d578261035f565b815b905080156103ca57600054604051636b3c2cc560e11b8152600481018390526001600160a01b039091169063d678598a90602401600060405180830381600087803b1580156103ad57600080fd5b505af11580156103c1573d6000803e3d6000fd5b505050506104ac565b6001546002546040516370a0823160e01b81523060048201526001600160a01b03928316926394b918de9216906370a0823190602401602060405180830381865afa15801561041d573d6000803e3d6000fd5b505050506040513d601f19601f8201168201806040525081019061044191906107e4565b6040518263ffffffff1660e01b815260040161045f91815260200190565b6020604051808303816000875af115801561047e573d6000803e3d6000fd5b505050506040513d601f19601f820116820180604052508101906104a291906107e4565b50505050506104c2565b846104b6816107fd565b9550505050505061012f565b60408051338152602081018390527fd7efb8fa81d5b6f15413f20428a60e0a70f6be8cd6f2bc98f3e95e7d69e75a12910160405180910390a150565b6003546001600160a01b031633146105285760405162461bcd60e51b8152600401610123906107c0565b604051600090339047908381818185875af1925050503d806000811461056a576040519150601f19603f3d011682016040523d82523d6000602084013e61056f565b606091505b505090508061057d57600080fd5b50565b6003546001600160a01b031633146105aa5760405162461bcd60e51b8152600401610123906107c0565b60005b6000805460408051639e81699960e01b8152905147936001600160a01b0390931692639e8169999285926004808301939282900301818588803b1580156105f357600080fd5b505af1158015610607573d6000803e3d6000fd5b5050505050828111610619575061076a565b600080546040516361a4d4ef60e01b8152600481018490526001600160a01b03909116906361a4d4ef90602401602060405180830381865afa158015610663573d6000803e3d6000fd5b505050506040513d601f19601f8201168201806040525081019061068791906107e4565b600054604051636aef22d360e11b8152600481018390529192506001600160a01b03169063d5de45a690602401600060405180830381600087803b1580156106ce57600080fd5b505af11580156106e2573d6000803e3d6000fd5b5050600154604051634a5c8c6f60e11b8152600481018590526001600160a01b0390911692506394b918de91506024016020604051808303816000875af1158015610731573d6000803e3d6000fd5b505050506040513d601f19601f8201168201806040525081019061075591906107e4565b5082610760816107fd565b93505050506105ad565b60408051338152602081018390527fd181fe027f31a66850cb9f3ded8b33ab1a90bbb391935d4d9fd26090dac11a25910160405180910390a15050565b6000602082840312156107b957600080fd5b5035919050565b6020808252600a908201526927b7363c9037bbb732b960b11b604082015260600190565b6000602082840312156107f657600080fd5b5051919050565b60006001820161081d57634e487b7160e01b600052601160045260246000fd5b506001019056fea2646970667358221220f0fdaf559d4745b5c1995fcdec1e537fd18a1fb05d8a2a4c9cc411860af6d1eb64736f6c63430008140033",
  "devdoc": {
    "kind": "dev",
    "methods": {},
    "version": 1
  },
  "userdoc": {
    "kind": "user",
    "methods": {},
    "version": 1
  },
  "storageLayout": {
    "storage": [
      {
        "astId": 2550,
        "contract": "contracts/Leverage.sol:Leverage",
        "label": "i_lending",
        "offset": 0,
        "slot": "0",
        "type": "t_contract(Lending)2527"
      },
      {
        "astId": 2553,
        "contract": "contracts/Leverage.sol:Leverage",
        "label": "i_cornDEX",
        "offset": 0,
        "slot": "1",
        "type": "t_contract(CornDEX)1652"
      },
      {
        "astId": 2556,
        "contract": "contracts/Leverage.sol:Leverage",
        "label": "i_corn",
        "offset": 0,
        "slot": "2",
        "type": "t_contract(Corn)1000"
      },
      {
        "astId": 2558,
        "contract": "contracts/Leverage.sol:Leverage",
        "label": "owner",
        "offset": 0,
        "slot": "3",
        "type": "t_address"
      }
    ],
    "types": {
      "t_address": {
        "encoding": "inplace",
        "label": "address",
        "numberOfBytes": "20"
      },
      "t_contract(Corn)1000": {
        "encoding": "inplace",
        "label": "contract Corn",
        "numberOfBytes": "20"
      },
      "t_contract(CornDEX)1652": {
        "encoding": "inplace",
        "label": "contract CornDEX",
        "numberOfBytes": "20"
      },
      "t_contract(Lending)2527": {
        "encoding": "inplace",
        "label": "contract Lending",
        "numberOfBytes": "20"
      }
    }
  }
}